{
  "contractName": "Votacion",
  "abi": [
    {
      "inputs": [],
      "payable": false,
      "stateMutability": "nonpayable",
      "type": "constructor"
    },
    {
      "anonymous": false,
      "inputs": [
        {
          "indexed": true,
          "internalType": "uint256",
          "name": "_idCandidato",
          "type": "uint256"
        }
      ],
      "name": "votoEvent",
      "type": "event"
    },
    {
      "constant": true,
      "inputs": [
        {
          "internalType": "uint256",
          "name": "",
          "type": "uint256"
        }
      ],
      "name": "candidatos",
      "outputs": [
        {
          "internalType": "uint256",
          "name": "id",
          "type": "uint256"
        },
        {
          "internalType": "string",
          "name": "nombre",
          "type": "string"
        },
        {
          "internalType": "uint256",
          "name": "cantidad_votos",
          "type": "uint256"
        },
        {
          "internalType": "string",
          "name": "url",
          "type": "string"
        },
        {
          "internalType": "string",
          "name": "info",
          "type": "string"
        }
      ],
      "payable": false,
      "stateMutability": "view",
      "type": "function"
    },
    {
      "constant": true,
      "inputs": [
        {
          "internalType": "uint256",
          "name": "",
          "type": "uint256"
        }
      ],
      "name": "correos",
      "outputs": [
        {
          "internalType": "string",
          "name": "",
          "type": "string"
        }
      ],
      "payable": false,
      "stateMutability": "view",
      "type": "function"
    },
    {
      "constant": true,
      "inputs": [],
      "name": "numero_candidatos",
      "outputs": [
        {
          "internalType": "uint256",
          "name": "",
          "type": "uint256"
        }
      ],
      "payable": false,
      "stateMutability": "view",
      "type": "function"
    },
    {
      "constant": true,
      "inputs": [],
      "name": "numero_correos",
      "outputs": [
        {
          "internalType": "uint256",
          "name": "",
          "type": "uint256"
        }
      ],
      "payable": false,
      "stateMutability": "view",
      "type": "function"
    },
    {
      "constant": true,
      "inputs": [
        {
          "internalType": "string",
          "name": "",
          "type": "string"
        }
      ],
      "name": "tokens",
      "outputs": [
        {
          "internalType": "bool",
          "name": "",
          "type": "bool"
        }
      ],
      "payable": false,
      "stateMutability": "view",
      "type": "function"
    },
    {
      "constant": false,
      "inputs": [
        {
          "internalType": "string",
          "name": "_nombre",
          "type": "string"
        },
        {
          "internalType": "string",
          "name": "_url",
          "type": "string"
        },
        {
          "internalType": "string",
          "name": "_info",
          "type": "string"
        }
      ],
      "name": "agregarCandidato",
      "outputs": [],
      "payable": false,
      "stateMutability": "nonpayable",
      "type": "function"
    },
    {
      "constant": false,
      "inputs": [
        {
          "internalType": "uint256",
          "name": "_idCandidato",
          "type": "uint256"
        },
        {
          "internalType": "string",
          "name": "_token",
          "type": "string"
        }
      ],
      "name": "votar",
      "outputs": [],
      "payable": false,
      "stateMutability": "nonpayable",
      "type": "function"
    },
    {
      "constant": false,
      "inputs": [
        {
          "internalType": "uint256",
          "name": "_idCandidato",
          "type": "uint256"
        }
      ],
      "name": "votarTest",
      "outputs": [],
      "payable": false,
      "stateMutability": "nonpayable",
      "type": "function"
    },
    {
      "constant": false,
      "inputs": [
        {
          "internalType": "string",
          "name": "_correo",
          "type": "string"
        },
        {
          "internalType": "string",
          "name": "_token",
          "type": "string"
        }
      ],
      "name": "solicitudKey",
      "outputs": [],
      "payable": false,
      "stateMutability": "nonpayable",
      "type": "function"
    }
  ],
  "bytecode": "0x60806040523480156200001157600080fd5b506200009460405180604001604052806006815260200165626c616e636f60d01b8152506040518060400160405280601781526020017f696d616765732f766f746f2d626c616e636f2e6a7065670000000000000000008152506040518060600160405280602f8152602001620010e6602f91396001600160e01b036200009a16565b620001e9565b6001805481018082556040805160a0810182528281526020808201888152600083850181905260608401899052608084018890529485526004825292909320815181559151805191949293620000f69385019291019062000144565b5060408201516002820155606082015180516200011e91600384019160209091019062000144565b50608082015180516200013c91600484019160209091019062000144565b505050505050565b828054600181600116156101000203166002900490600052602060002090601f016020900481019282601f106200018757805160ff1916838001178555620001b7565b82800160010185558215620001b7579182015b82811115620001b75782518255916020019190600101906200019a565b50620001c5929150620001c9565b5090565b620001e691905b80821115620001c55760008155600101620001d0565b90565b610eed80620001f96000396000f3fe608060405234801561001057600080fd5b50600436106100935760003560e01c8063435a1c2e11610066578063435a1c2e1461021f5780638f023f85146103cd57806393f5cfcd1461053c5780639ac70c26146105ce578063b2621b49146105eb57610093565b806304c2320b14610098578063111cc2761461015057806334edc4681461016a5780633fccc6c114610172575b600080fd5b61013c600480360360208110156100ae57600080fd5b810190602081018135600160201b8111156100c857600080fd5b8201836020820111156100da57600080fd5b803590602001918460018302840111600160201b831117156100fb57600080fd5b91908080601f016020809104026020016040519081016040528093929190818152602001838380828437600092019190915250929550610714945050505050565b604080519115158252519081900360200190f35b610158610734565b60408051918252519081900360200190f35b61015861073a565b61021d6004803603604081101561018857600080fd5b81359190810190604081016020820135600160201b8111156101a957600080fd5b8201836020820111156101bb57600080fd5b803590602001918460018302840111600160201b831117156101dc57600080fd5b91908080601f016020809104026020016040519081016040528093929190818152602001838380828437600092019190915250929550610740945050505050565b005b61021d6004803603606081101561023557600080fd5b810190602081018135600160201b81111561024f57600080fd5b82018360208201111561026157600080fd5b803590602001918460018302840111600160201b8311171561028257600080fd5b91908080601f0160208091040260200160405190810160405280939291908181526020018383808284376000920191909152509295949360208101935035915050600160201b8111156102d457600080fd5b8201836020820111156102e657600080fd5b803590602001918460018302840111600160201b8311171561030757600080fd5b91908080601f0160208091040260200160405190810160405280939291908181526020018383808284376000920191909152509295949360208101935035915050600160201b81111561035957600080fd5b82018360208201111561036b57600080fd5b803590602001918460018302840111600160201b8311171561038c57600080fd5b91908080601f0160208091040260200160405190810160405280939291908181526020018383808284376000920191909152509295506108f5945050505050565b6103ea600480360360208110156103e357600080fd5b5035610999565b60405180868152602001806020018581526020018060200180602001848103845288818151815260200191508051906020019080838360005b8381101561043b578181015183820152602001610423565b50505050905090810190601f1680156104685780820380516001836020036101000a031916815260200191505b50848103835286518152865160209182019188019080838360005b8381101561049b578181015183820152602001610483565b50505050905090810190601f1680156104c85780820380516001836020036101000a031916815260200191505b50848103825285518152855160209182019187019080838360005b838110156104fb5781810151838201526020016104e3565b50505050905090810190601f1680156105285780820380516001836020036101000a031916815260200191505b509850505050505050505060405180910390f35b6105596004803603602081101561055257600080fd5b5035610b68565b6040805160208082528351818301528351919283929083019185019080838360005b8381101561059357818101518382015260200161057b565b50505050905090810190601f1680156105c05780820380516001836020036101000a031916815260200191505b509250505060405180910390f35b61021d600480360360208110156105e457600080fd5b5035610c03565b61021d6004803603604081101561060157600080fd5b810190602081018135600160201b81111561061b57600080fd5b82018360208201111561062d57600080fd5b803590602001918460018302840111600160201b8311171561064e57600080fd5b91908080601f0160208091040260200160405190810160405280939291908181526020018383808284376000920191909152509295949360208101935035915050600160201b8111156106a057600080fd5b8201836020820111156106b257600080fd5b803590602001918460018302840111600160201b831117156106d357600080fd5b91908080601f016020809104026020016040519081016040528093929190818152602001838380828437600092019190915250929550610c9e945050505050565b805160208183018101805160028252928201919093012091525460ff1681565b60015481565b60005481565b6002816040518082805190602001908083835b602083106107725780518252601f199092019160209182019101610753565b51815160209384036101000a600019018019909216911617905292019485525060405193849003019092205460ff1691506107e89050576040805162461bcd60e51b815260206004820152600f60248201526e546f6b656e206e6f2076616c69646f60881b604482015290519081900360640190fd5b6000821180156107fa57506001548211155b610841576040805162461bcd60e51b815260206004820152601360248201527263616e64696461746f206e6f2076616c69646f60681b604482015290519081900360640190fd5b60006002826040518082805190602001908083835b602083106108755780518252601f199092019160209182019101610856565b51815160209384036101000a6000190180199092169116179052920194855250604080519485900382018520805460ff19169615159690961790955560008781526004909152938420600201805460010190555084927fbf3bef754e1bbd498726a68ea7fe2f76ea7697623489d3c02c9e3e834504c8ac92909150a25050565b6001805481018082556040805160a081018252828152602080820188815260008385018190526060840189905260808401889052948552600482529290932081518155915180519194929361094f93850192910190610e1d565b506040820151600282015560608201518051610975916003840191602090910190610e1d565b5060808201518051610991916004840191602090910190610e1d565b505050505050565b6004602090815260009182526040918290208054600180830180548651600293821615610100026000190190911692909204601f810186900486028301860190965285825291949293909290830182828015610a365780601f10610a0b57610100808354040283529160200191610a36565b820191906000526020600020905b815481529060010190602001808311610a1957829003601f168201915b505050506002838101546003850180546040805160206001841615610100026000190190931695909504601f810183900483028601830190915280855295969295929450909190830182828015610ace5780601f10610aa357610100808354040283529160200191610ace565b820191906000526020600020905b815481529060010190602001808311610ab157829003601f168201915b5050505060048301805460408051602060026001851615610100026000190190941693909304601f8101849004840282018401909252818152949594935090830182828015610b5e5780601f10610b3357610100808354040283529160200191610b5e565b820191906000526020600020905b815481529060010190602001808311610b4157829003601f168201915b5050505050905085565b60036020908152600091825260409182902080548351601f600260001961010060018616150201909316929092049182018490048402810184019094528084529091830182828015610bfb5780601f10610bd057610100808354040283529160200191610bfb565b820191906000526020600020905b815481529060010190602001808311610bde57829003601f168201915b505050505081565b600081118015610c1557506001548111155b610c5c576040805162461bcd60e51b815260206004820152601360248201527263616e64696461746f206e6f2076616c69646f60681b604482015290519081900360640190fd5b600081815260046020526040808220600201805460010190555182917fbf3bef754e1bbd498726a68ea7fe2f76ea7697623489d3c02c9e3e834504c8ac91a250565b60015b6000548111610d80578280519060200120600360008381526020019081526020016000206040518082805460018160011615610100020316600290048015610d205780601f10610cfe576101008083540402835291820191610d20565b820191906000526020600020905b815481529060010190602001808311610d0c575b505091505060405180910390201415610d78576040805162461bcd60e51b81526020600482015260156024820152744573746520636f7272656f2079612065786973746560581b604482015290519081900360640190fd5b600101610ca1565b506000805460010180825581526003602090815260409091208351610da792850190610e1d565b5060016002826040518082805190602001908083835b60208310610ddc5780518252601f199092019160209182019101610dbd565b51815160209384036101000a60001901801990921691161790529201948552506040519384900301909220805460ff19169315159390931790925550505050565b828054600181600116156101000203166002900490600052602060002090601f016020900481019282601f10610e5e57805160ff1916838001178555610e8b565b82800160010185558215610e8b579182015b82811115610e8b578251825591602001919060010190610e70565b50610e97929150610e9b565b5090565b610eb591905b80821115610e975760008155600101610ea1565b9056fea265627a7a72315820cb4612a89451bb75f4f4f5409c28f161049298c35e16e6adecf026fde4fced8564736f6c63430005100032566f746f20717565206e6f206573746120646972696769646f2070617261206e696e67756e2063616e64696461746f",
  "source": "pragma solidity ^0.5.16;\r\ncontract Votacion{\r\n    //objeto Candidato\r\n    struct candidato{\r\n        uint id;\r\n        string nombre;\r\n        uint cantidad_votos;\r\n        string url;\r\n        string info;\r\n    }\r\n    //numero de correos\r\n    uint public numero_correos;\r\n    //numero de candidatos\r\n    uint public numero_candidatos;\r\n    mapping(string => bool) public tokens;\r\n    //almacenamiento correos institucionales\r\n    mapping(uint => string) public correos;\r\n    //almacenamiento de candidatos\r\n    mapping(uint => candidato) public candidatos;\r\n    //Inicializa los candidatos\r\n    constructor () public {\r\n        agregarCandidato(\"blanco\",\r\n        \"images/voto-blanco.jpeg\",\r\n        \"Voto que no esta dirigido para ningun candidato\");\r\n    }\r\n    function agregarCandidato (string memory _nombre,string memory _url,string memory _info) public {\r\n        numero_candidatos++;\r\n        candidatos[numero_candidatos] = candidato(numero_candidatos, _nombre, 0,_url,_info);\r\n    }\r\n    event votoEvent (\r\n        uint indexed _idCandidato\r\n    );\r\n    function votar (uint _idCandidato, string memory _token) public {\r\n        require(tokens[_token],\"Token no valido\");\r\n        require(_idCandidato > 0 && _idCandidato <= numero_candidatos,\"candidato no valido\");\r\n        tokens[_token] = false;\r\n        candidatos[_idCandidato].cantidad_votos ++;\r\n        emit votoEvent(_idCandidato);\r\n    }\r\n    function votarTest (uint _idCandidato) public {\r\n        require(_idCandidato > 0 && _idCandidato <= numero_candidatos,\"candidato no valido\");\r\n        candidatos[_idCandidato].cantidad_votos ++;\r\n        emit votoEvent(_idCandidato);\r\n    }\r\n    function solicitudKey (string memory _correo, string memory _token) public {\r\n        for(uint i=1;i<=numero_correos;i++){\r\n            if(keccak256(bytes(correos[i])) == keccak256(bytes(_correo))){\r\n                revert(\"Este correo ya existe\");\r\n            }\r\n        }\r\n        numero_correos++;\r\n        correos[numero_correos]=_correo;\r\n        tokens[_token] = true;\r\n    }\r\n}",
  "sourcePath": "E:\\Users\\steve\\Documents\\dapp\\blockchain\\contracts\\Votacion.sol",
  "compiler": {
    "name": "solc",
    "version": "0.5.16+commit.9c3226ce.Emscripten.clang"
  },
  "schemaVersion": "3.0.23",
  "updatedAt": "2020-10-08T00:25:50.677Z",
  "networkType": "ethereum",
  "devdoc": {
    "methods": {}
  },
  "userdoc": {
    "methods": {}
  }
}