{
  "contractName": "Votacion",
  "abi": [
    {
      "inputs": [],
      "payable": false,
      "stateMutability": "nonpayable",
      "type": "constructor"
    },
    {
      "anonymous": false,
      "inputs": [
        {
          "indexed": true,
          "internalType": "uint256",
          "name": "_idCandidato",
          "type": "uint256"
        }
      ],
      "name": "votoEvent",
      "type": "event"
    },
    {
      "constant": true,
      "inputs": [
        {
          "internalType": "uint256",
          "name": "",
          "type": "uint256"
        }
      ],
      "name": "candidatos",
      "outputs": [
        {
          "internalType": "uint256",
          "name": "id",
          "type": "uint256"
        },
        {
          "internalType": "string",
          "name": "nombre",
          "type": "string"
        },
        {
          "internalType": "uint256",
          "name": "cantidad_votos",
          "type": "uint256"
        }
      ],
      "payable": false,
      "stateMutability": "view",
      "type": "function"
    },
    {
      "constant": true,
      "inputs": [],
      "name": "numero_candidatos",
      "outputs": [
        {
          "internalType": "uint256",
          "name": "",
          "type": "uint256"
        }
      ],
      "payable": false,
      "stateMutability": "view",
      "type": "function"
    },
    {
      "constant": true,
      "inputs": [
        {
          "internalType": "address",
          "name": "",
          "type": "address"
        }
      ],
      "name": "votantes",
      "outputs": [
        {
          "internalType": "bool",
          "name": "",
          "type": "bool"
        }
      ],
      "payable": false,
      "stateMutability": "view",
      "type": "function"
    },
    {
      "constant": false,
      "inputs": [
        {
          "internalType": "uint256",
          "name": "_idCandidato",
          "type": "uint256"
        }
      ],
      "name": "votar",
      "outputs": [],
      "payable": false,
      "stateMutability": "nonpayable",
      "type": "function"
    }
  ],
  "bytecode": "0x608060405234801561001057600080fd5b506100556040518060400160405280600b81526020017f43616e646964617465203100000000000000000000000000000000000000000081525061009e60201b60201c565b6100996040518060400160405280600b81526020017f43616e646964617465203200000000000000000000000000000000000000000081525061009e60201b60201c565b6101bd565b60008081548092919060010191905055506040518060600160405280600054815260200182815260200160008152506002600080548152602001908152602001600020600082015181600001556020820151816001019080519060200190610107929190610118565b506040820151816002015590505050565b828054600181600116156101000203166002900490600052602060002090601f016020900481019282601f1061015957805160ff1916838001178555610187565b82800160010185558215610187579182015b8281111561018657825182559160200191906001019061016b565b5b5090506101949190610198565b5090565b6101ba91905b808211156101b657600081600090555060010161019e565b5090565b90565b6103ea806101cc6000396000f3fe608060405234801561001057600080fd5b506004361061004c5760003560e01c8063111cc27614610051578063216068311461006f5780638f023f851461009d578063a92284d014610152575b600080fd5b6100596101ae565b6040518082815260200191505060405180910390f35b61009b6004803603602081101561008557600080fd5b81019080803590602001909291905050506101b4565b005b6100c9600480360360208110156100b357600080fd5b81019080803590602001909291905050506102d3565b6040518084815260200180602001838152602001828103825284818151815260200191508051906020019080838360005b838110156101155780820151818401526020810190506100fa565b50505050905090810190601f1680156101425780820380516001836020036101000a031916815260200191505b5094505050505060405180910390f35b6101946004803603602081101561016857600080fd5b81019080803573ffffffffffffffffffffffffffffffffffffffff169060200190929190505050610395565b604051808215151515815260200191505060405180910390f35b60005481565b600160003373ffffffffffffffffffffffffffffffffffffffff1673ffffffffffffffffffffffffffffffffffffffff16815260200190815260200160002060009054906101000a900460ff161561020b57600080fd5b60008111801561021d57506000548111155b61022657600080fd5b60018060003373ffffffffffffffffffffffffffffffffffffffff1673ffffffffffffffffffffffffffffffffffffffff16815260200190815260200160002060006101000a81548160ff0219169083151502179055506002600082815260200190815260200160002060020160008154809291906001019190505550807fbf3bef754e1bbd498726a68ea7fe2f76ea7697623489d3c02c9e3e834504c8ac60405160405180910390a250565b6002602052806000526040600020600091509050806000015490806001018054600181600116156101000203166002900480601f0160208091040260200160405190810160405280929190818152602001828054600181600116156101000203166002900480156103855780601f1061035a57610100808354040283529160200191610385565b820191906000526020600020905b81548152906001019060200180831161036857829003601f168201915b5050505050908060020154905083565b60016020528060005260406000206000915054906101000a900460ff168156fea265627a7a723158205a5b7449b68d85f2fdb064cd8483f16cd494e1e7964ecd48998b63ddcd5189c664736f6c63430005100032",
  "source": "pragma solidity ^0.5.16;\r\n\r\ncontract Votacion{\r\n    //objeto Candidato\r\n    struct candidato{\r\n        uint id;\r\n        string nombre;\r\n        uint cantidad_votos;\r\n    }\r\n    //numero de candidatos\r\n    uint public numero_candidatos;\r\n    //almacenamiento direcciones de los votantes\r\n    mapping(address => bool) public votantes;\r\n    //almacenamiento de candidatos\r\n    mapping(uint => candidato) public candidatos;\r\n    //Inicializa los candidatos\r\n    constructor () public {\r\n        agregarCandidato(\"Candidate 1\");\r\n        agregarCandidato(\"Candidate 2\");\r\n    }\r\n    function agregarCandidato (string memory _nombre) private {\r\n        numero_candidatos++;\r\n        candidatos[numero_candidatos] = candidato(numero_candidatos, _nombre, 0);\r\n    }\r\n\r\n    event votoEvent (\r\n        uint indexed _idCandidato\r\n    );\r\n    function votar (uint _idCandidato) public {\r\n        //verifica 1 voto por cuenta\r\n        require(!votantes[msg.sender]);\r\n\r\n        //verifica candidato sea valido\r\n        require(_idCandidato > 0 && _idCandidato <= numero_candidatos);\r\n\r\n        // record that voter has voted\r\n        votantes[msg.sender] = true;\r\n\r\n        // update candidate vote Count\r\n        candidatos[_idCandidato].cantidad_votos ++;\r\n\r\n        // trigger voted event\r\n        emit votoEvent(_idCandidato);\r\n    }\r\n\r\n\r\n}",
  "sourcePath": "C:\\Users\\Steven\\Documents\\dapp\\blockchain\\contracts\\Votacion.sol",
  "compiler": {
    "name": "solc",
    "version": "0.5.16+commit.9c3226ce.Emscripten.clang"
  },
  "schemaVersion": "3.2.0",
  "updatedAt": "2020-08-04T16:55:08.014Z",
  "networkType": "ethereum",
  "devdoc": {
    "methods": {}
  },
  "userdoc": {
    "methods": {}
  }
}