{
  "contractName": "Votacion",
  "abi": [
    {
      "inputs": [],
      "payable": false,
      "stateMutability": "nonpayable",
      "type": "constructor"
    },
    {
      "anonymous": false,
      "inputs": [
        {
          "indexed": true,
          "internalType": "uint256",
          "name": "_idCandidato",
          "type": "uint256"
        }
      ],
      "name": "votoEvent",
      "type": "event"
    },
    {
      "constant": true,
      "inputs": [
        {
          "internalType": "uint256",
          "name": "",
          "type": "uint256"
        }
      ],
      "name": "candidatos",
      "outputs": [
        {
          "internalType": "uint256",
          "name": "id",
          "type": "uint256"
        },
        {
          "internalType": "string",
          "name": "nombre",
          "type": "string"
        },
        {
          "internalType": "uint256",
          "name": "cantidad_votos",
          "type": "uint256"
        },
        {
          "internalType": "string",
          "name": "url",
          "type": "string"
        },
        {
          "internalType": "string",
          "name": "info",
          "type": "string"
        }
      ],
      "payable": false,
      "stateMutability": "view",
      "type": "function"
    },
    {
      "constant": true,
      "inputs": [],
      "name": "numero_candidatos",
      "outputs": [
        {
          "internalType": "uint256",
          "name": "",
          "type": "uint256"
        }
      ],
      "payable": false,
      "stateMutability": "view",
      "type": "function"
    },
    {
      "constant": true,
      "inputs": [
        {
          "internalType": "address",
          "name": "",
          "type": "address"
        }
      ],
      "name": "votantes",
      "outputs": [
        {
          "internalType": "bool",
          "name": "",
          "type": "bool"
        }
      ],
      "payable": false,
      "stateMutability": "view",
      "type": "function"
    },
    {
      "constant": false,
      "inputs": [
        {
          "internalType": "uint256",
          "name": "_idCandidato",
          "type": "uint256"
        }
      ],
      "name": "votar",
      "outputs": [],
      "payable": false,
      "stateMutability": "nonpayable",
      "type": "function"
    }
  ],
  "bytecode": "0x608060405234801561001057600080fd5b506100a46040518060400160405280600e81526020017f4a6f72676520676f6e7a616c657a0000000000000000000000000000000000008152506040518060400160405280601981526020017f696d616765732f6a6f7267655f676f6e7a616c657a2e6a7067000000000000008152506040518060600160405280604081526020016109006040913961013c60201b60201c565b6101376040518060400160405280600c81526020017f4c756973206265646f6c6c6100000000000000000000000000000000000000008152506040518060400160405280601781526020017f696d616765732f6c7569735f6265646f6c6c612e6a70670000000000000000008152506040518060800160405280605081526020016108b06050913961013c60201b60201c565b6102a3565b60008081548092919060010191905055506040518060a001604052806000548152602001848152602001600081526020018381526020018281525060026000805481526020019081526020016000206000820151816000015560208201518160010190805190602001906101b19291906101fe565b506040820151816002015560608201518160030190805190602001906101d89291906101fe565b5060808201518160040190805190602001906101f59291906101fe565b50905050505050565b828054600181600116156101000203166002900490600052602060002090601f016020900481019282601f1061023f57805160ff191683800117855561026d565b8280016001018555821561026d579182015b8281111561026c578251825591602001919060010190610251565b5b50905061027a919061027e565b5090565b6102a091905b8082111561029c576000816000905550600101610284565b5090565b90565b6105fe806102b26000396000f3fe608060405234801561001057600080fd5b506004361061004c5760003560e01c8063111cc27614610051578063216068311461006f5780638f023f851461009d578063a92284d01461022a575b600080fd5b610059610286565b6040518082815260200191505060405180910390f35b61009b6004803603602081101561008557600080fd5b810190808035906020019092919050505061028c565b005b6100c9600480360360208110156100b357600080fd5b81019080803590602001909291905050506103ab565b60405180868152602001806020018581526020018060200180602001848103845288818151815260200191508051906020019080838360005b8381101561011d578082015181840152602081019050610102565b50505050905090810190601f16801561014a5780820380516001836020036101000a031916815260200191505b50848103835286818151815260200191508051906020019080838360005b83811015610183578082015181840152602081019050610168565b50505050905090810190601f1680156101b05780820380516001836020036101000a031916815260200191505b50848103825285818151815260200191508051906020019080838360005b838110156101e95780820151818401526020810190506101ce565b50505050905090810190601f1680156102165780820380516001836020036101000a031916815260200191505b509850505050505050505060405180910390f35b61026c6004803603602081101561024057600080fd5b81019080803573ffffffffffffffffffffffffffffffffffffffff1690602001909291905050506105a9565b604051808215151515815260200191505060405180910390f35b60005481565b600160003373ffffffffffffffffffffffffffffffffffffffff1673ffffffffffffffffffffffffffffffffffffffff16815260200190815260200160002060009054906101000a900460ff16156102e357600080fd5b6000811180156102f557506000548111155b6102fe57600080fd5b60018060003373ffffffffffffffffffffffffffffffffffffffff1673ffffffffffffffffffffffffffffffffffffffff16815260200190815260200160002060006101000a81548160ff0219169083151502179055506002600082815260200190815260200160002060020160008154809291906001019190505550807fbf3bef754e1bbd498726a68ea7fe2f76ea7697623489d3c02c9e3e834504c8ac60405160405180910390a250565b6002602052806000526040600020600091509050806000015490806001018054600181600116156101000203166002900480601f01602080910402602001604051908101604052809291908181526020018280546001816001161561010002031660029004801561045d5780601f106104325761010080835404028352916020019161045d565b820191906000526020600020905b81548152906001019060200180831161044057829003601f168201915b505050505090806002015490806003018054600181600116156101000203166002900480601f0160208091040260200160405190810160405280929190818152602001828054600181600116156101000203166002900480156105015780601f106104d657610100808354040283529160200191610501565b820191906000526020600020905b8154815290600101906020018083116104e457829003601f168201915b505050505090806004018054600181600116156101000203166002900480601f01602080910402602001604051908101604052809291908181526020018280546001816001161561010002031660029004801561059f5780601f106105745761010080835404028352916020019161059f565b820191906000526020600020905b81548152906001019060200180831161058257829003601f168201915b5050505050905085565b60016020528060005260406000206000915054906101000a900460ff168156fea265627a7a723158202a7f6f861f9dcf96d67b3fce758ba8081f82145213e41fc4aade8476c8fdd2a364736f6c63430005100032457374756469616e74652064652041646d696e697374726163696f6e20446520456d7072657361732d646563696d6f2073656d65737472652065787420466163617461746976612d32342061c3b16f73457374756469616e746520646520707369636f6c6f6769612d6e6f76656e6f2073656d65737472652065787420466163617461746976612d32352061c3b16f73",
  "source": "pragma solidity ^0.5.16;\r\n\r\ncontract Votacion{\r\n    //objeto Candidato\r\n    struct candidato{\r\n        uint id;\r\n        string nombre;\r\n        uint cantidad_votos;\r\n        string url;\r\n        string info;\r\n    }\r\n    //numero de candidatos\r\n    uint public numero_candidatos;\r\n    //almacenamiento direcciones de los votantes\r\n    mapping(address => bool) public votantes;\r\n    //almacenamiento de candidatos\r\n    mapping(uint => candidato) public candidatos;\r\n    //Inicializa los candidatos\r\n    constructor () public {\r\n        agregarCandidato(\"Jorge gonzalez\",\r\n        \"images/jorge_gonzalez.jpg\",\r\n        \"Estudiante de psicologia-noveno semestre ext Facatativa-25 años\");\r\n        agregarCandidato(\"Luis bedolla\",\r\n        \"images/luis_bedolla.jpg\",\r\n        \"Estudiante de Administracion De Empresas-decimo semestre ext Facatativa-24 años\");\r\n    }\r\n    function agregarCandidato (string memory _nombre,string memory _url,string memory _info) private {\r\n        numero_candidatos++;\r\n        candidatos[numero_candidatos] = candidato(numero_candidatos, _nombre, 0,_url,_info);\r\n    }\r\n\r\n    event votoEvent (\r\n        uint indexed _idCandidato\r\n    );\r\n    function votar (uint _idCandidato) public {\r\n        //verifica 1 voto por cuenta\r\n        require(!votantes[msg.sender]);\r\n\r\n        //verifica candidato sea valido\r\n        require(_idCandidato > 0 && _idCandidato <= numero_candidatos);\r\n\r\n        // record that voter has voted\r\n        votantes[msg.sender] = true;\r\n\r\n        // update candidate vote Count\r\n        candidatos[_idCandidato].cantidad_votos ++;\r\n\r\n        // trigger voted event\r\n        emit votoEvent(_idCandidato);\r\n    }\r\n\r\n\r\n}",
  "sourcePath": "C:\\Users\\Steven\\Documents\\dapp\\blockchain\\contracts\\Votacion.sol",
  "compiler": {
    "name": "solc",
    "version": "0.5.16+commit.9c3226ce.Emscripten.clang"
  },
  "schemaVersion": "3.2.0",
  "updatedAt": "2020-08-05T18:36:49.004Z",
  "networkType": "ethereum",
  "devdoc": {
    "methods": {}
  },
  "userdoc": {
    "methods": {}
  }
}