{
  "contractName": "Votacion",
  "abi": [
    {
      "inputs": [],
      "payable": false,
      "stateMutability": "nonpayable",
      "type": "constructor"
    },
    {
      "anonymous": false,
      "inputs": [
        {
          "indexed": true,
          "internalType": "uint256",
          "name": "_idCandidato",
          "type": "uint256"
        }
      ],
      "name": "votoEvent",
      "type": "event"
    },
    {
      "constant": true,
      "inputs": [
        {
          "internalType": "uint256",
          "name": "",
          "type": "uint256"
        }
      ],
      "name": "candidatos",
      "outputs": [
        {
          "internalType": "uint256",
          "name": "id",
          "type": "uint256"
        },
        {
          "internalType": "string",
          "name": "nombre",
          "type": "string"
        },
        {
          "internalType": "uint256",
          "name": "cantidad_votos",
          "type": "uint256"
        },
        {
          "internalType": "string",
          "name": "url",
          "type": "string"
        },
        {
          "internalType": "string",
          "name": "info",
          "type": "string"
        }
      ],
      "payable": false,
      "stateMutability": "view",
      "type": "function"
    },
    {
      "constant": true,
      "inputs": [
        {
          "internalType": "uint256",
          "name": "",
          "type": "uint256"
        }
      ],
      "name": "correos",
      "outputs": [
        {
          "internalType": "string",
          "name": "",
          "type": "string"
        }
      ],
      "payable": false,
      "stateMutability": "view",
      "type": "function"
    },
    {
      "constant": true,
      "inputs": [],
      "name": "numero_candidatos",
      "outputs": [
        {
          "internalType": "uint256",
          "name": "",
          "type": "uint256"
        }
      ],
      "payable": false,
      "stateMutability": "view",
      "type": "function"
    },
    {
      "constant": true,
      "inputs": [],
      "name": "numero_correos",
      "outputs": [
        {
          "internalType": "uint256",
          "name": "",
          "type": "uint256"
        }
      ],
      "payable": false,
      "stateMutability": "view",
      "type": "function"
    },
    {
      "constant": true,
      "inputs": [
        {
          "internalType": "address",
          "name": "",
          "type": "address"
        }
      ],
      "name": "votantes",
      "outputs": [
        {
          "internalType": "bool",
          "name": "",
          "type": "bool"
        }
      ],
      "payable": false,
      "stateMutability": "view",
      "type": "function"
    },
    {
      "constant": false,
      "inputs": [
        {
          "internalType": "uint256",
          "name": "_idCandidato",
          "type": "uint256"
        }
      ],
      "name": "votar",
      "outputs": [],
      "payable": false,
      "stateMutability": "nonpayable",
      "type": "function"
    },
    {
      "constant": false,
      "inputs": [
        {
          "internalType": "string",
          "name": "_correo",
          "type": "string"
        }
      ],
      "name": "solicitudKey",
      "outputs": [],
      "payable": false,
      "stateMutability": "nonpayable",
      "type": "function"
    }
  ],
  "bytecode": "0x60806040523480156200001157600080fd5b50620000a86040518060400160405280600e81526020017f4a6f72676520676f6e7a616c657a0000000000000000000000000000000000008152506040518060400160405280601981526020017f696d616765732f6a6f7267655f676f6e7a616c657a2e6a70670000000000000081525060405180606001604052806040815260200162000e59604091396200014460201b60201c565b6200013e6040518060400160405280600c81526020017f4c756973206265646f6c6c6100000000000000000000000000000000000000008152506040518060400160405280601781526020017f696d616765732f6c7569735f6265646f6c6c612e6a706700000000000000000081525060405180608001604052806050815260200162000e09605091396200014460201b60201c565b620002bd565b6001600081548092919060010191905055506040518060a0016040528060015481526020018481526020016000815260200183815260200182815250600460006001548152602001908152602001600020600082015181600001556020820151816001019080519060200190620001bd9291906200020e565b50604082015181600201556060820151816003019080519060200190620001e69291906200020e565b506080820151816004019080519060200190620002059291906200020e565b50905050505050565b828054600181600116156101000203166002900490600052602060002090601f016020900481019282601f106200025157805160ff191683800117855562000282565b8280016001018555821562000282579182015b828111156200028157825182559160200191906001019062000264565b5b50905062000291919062000295565b5090565b620002ba91905b80821115620002b65760008160009055506001016200029c565b5090565b90565b610b3c80620002cd6000396000f3fe608060405234801561001057600080fd5b506004361061007d5760003560e01c806334edc4681161005b57806334edc468146101895780638f023f85146101a757806393f5cfcd14610334578063a92284d0146103db5761007d565b8063111cc27614610082578063152d070d146100a0578063216068311461015b575b600080fd5b61008a610437565b6040518082815260200191505060405180910390f35b610159600480360360208110156100b657600080fd5b81019080803590602001906401000000008111156100d357600080fd5b8201836020820111156100e557600080fd5b8035906020019184600183028401116401000000008311171561010757600080fd5b91908080601f016020809104026020016040519081016040528093929190818152602001838380828437600081840152601f19601f82011690508083019250505050505050919291929050505061043d565b005b6101876004803603602081101561017157600080fd5b810190808035906020019092919050505061058f565b005b610191610764565b6040518082815260200191505060405180910390f35b6101d3600480360360208110156101bd57600080fd5b810190808035906020019092919050505061076a565b60405180868152602001806020018581526020018060200180602001848103845288818151815260200191508051906020019080838360005b8381101561022757808201518184015260208101905061020c565b50505050905090810190601f1680156102545780820380516001836020036101000a031916815260200191505b50848103835286818151815260200191508051906020019080838360005b8381101561028d578082015181840152602081019050610272565b50505050905090810190601f1680156102ba5780820380516001836020036101000a031916815260200191505b50848103825285818151815260200191508051906020019080838360005b838110156102f35780820151818401526020810190506102d8565b50505050905090810190601f1680156103205780820380516001836020036101000a031916815260200191505b509850505050505050505060405180910390f35b6103606004803603602081101561034a57600080fd5b8101908080359060200190929190505050610968565b6040518080602001828103825283818151815260200191508051906020019080838360005b838110156103a0578082015181840152602081019050610385565b50505050905090810190601f1680156103cd5780820380516001836020036101000a031916815260200191505b509250505060405180910390f35b61041d600480360360208110156103f157600080fd5b81019080803573ffffffffffffffffffffffffffffffffffffffff169060200190929190505050610a18565b604051808215151515815260200191505060405180910390f35b60015481565b6000600190505b60005481116105515781805190602001206003600083815260200190815260200160002060405180828054600181600116156101000203166002900480156104c35780601f106104a15761010080835404028352918201916104c3565b820191906000526020600020905b8154815290600101906020018083116104af575b505091505060405180910390201415610544576040517f08c379a00000000000000000000000000000000000000000000000000000000081526004018080602001828103825260158152602001807f4573746520636f7272656f20796120657869737465000000000000000000000081525060200191505060405180910390fd5b8080600101915050610444565b506000808154809291906001019190505550806003600080548152602001908152602001600020908051906020019061058b929190610a38565b5050565b600260003373ffffffffffffffffffffffffffffffffffffffff1673ffffffffffffffffffffffffffffffffffffffff16815260200190815260200160002060009054906101000a900460ff1615610632576040517f08c379a000000000000000000000000000000000000000000000000000000000815260040180806020018281038252602a815260200180610ade602a913960400191505060405180910390fd5b60008111801561064457506001548111155b6106b6576040517f08c379a00000000000000000000000000000000000000000000000000000000081526004018080602001828103825260138152602001807f63616e64696461746f206e6f2076616c69646f0000000000000000000000000081525060200191505060405180910390fd5b6001600260003373ffffffffffffffffffffffffffffffffffffffff1673ffffffffffffffffffffffffffffffffffffffff16815260200190815260200160002060006101000a81548160ff0219169083151502179055506004600082815260200190815260200160002060020160008154809291906001019190505550807fbf3bef754e1bbd498726a68ea7fe2f76ea7697623489d3c02c9e3e834504c8ac60405160405180910390a250565b60005481565b6004602052806000526040600020600091509050806000015490806001018054600181600116156101000203166002900480601f01602080910402602001604051908101604052809291908181526020018280546001816001161561010002031660029004801561081c5780601f106107f15761010080835404028352916020019161081c565b820191906000526020600020905b8154815290600101906020018083116107ff57829003601f168201915b505050505090806002015490806003018054600181600116156101000203166002900480601f0160208091040260200160405190810160405280929190818152602001828054600181600116156101000203166002900480156108c05780601f10610895576101008083540402835291602001916108c0565b820191906000526020600020905b8154815290600101906020018083116108a357829003601f168201915b505050505090806004018054600181600116156101000203166002900480601f01602080910402602001604051908101604052809291908181526020018280546001816001161561010002031660029004801561095e5780601f106109335761010080835404028352916020019161095e565b820191906000526020600020905b81548152906001019060200180831161094157829003601f168201915b5050505050905085565b60036020528060005260406000206000915090508054600181600116156101000203166002900480601f016020809104026020016040519081016040528092919081815260200182805460018160011615610100020316600290048015610a105780601f106109e557610100808354040283529160200191610a10565b820191906000526020600020905b8154815290600101906020018083116109f357829003601f168201915b505050505081565b60026020528060005260406000206000915054906101000a900460ff1681565b828054600181600116156101000203166002900490600052602060002090601f016020900481019282601f10610a7957805160ff1916838001178555610aa7565b82800160010185558215610aa7579182015b82811115610aa6578251825591602001919060010190610a8b565b5b509050610ab49190610ab8565b5090565b610ada91905b80821115610ad6576000816000905550600101610abe565b5090565b9056fe45736120646972656363696f6e206465206375656e7461207961207265616c697a6f20656c20766f746fa265627a7a723158206ebf9d3bd3a88eaec8716736fdc9633d1e70bb0bd96d849b0153059ab4d9356164736f6c63430005100032457374756469616e74652064652041646d696e697374726163696f6e20446520456d7072657361732d646563696d6f2073656d65737472652065787420466163617461746976612d32342061c3b16f73457374756469616e746520646520707369636f6c6f6769612d6e6f76656e6f2073656d65737472652065787420466163617461746976612d32352061c3b16f73",
  "source": "pragma solidity ^0.5.16;\r\n\r\ncontract Votacion{\r\n    //objeto Candidato\r\n    struct candidato{\r\n        uint id;\r\n        string nombre;\r\n        uint cantidad_votos;\r\n        string url;\r\n        string info;\r\n    }\r\n    //numero de correos\r\n    uint public numero_correos;\r\n    //numero de candidatos\r\n    uint public numero_candidatos;\r\n    //almacenamiento direcciones de los votantes\r\n    mapping(address => bool) public votantes;\r\n    //almacenamiento correos institucionales\r\n    mapping(uint => string) public correos;\r\n    //almacenamiento de candidatos\r\n    mapping(uint => candidato) public candidatos;\r\n    //Inicializa los candidatos\r\n    constructor () public {\r\n        agregarCandidato(\"Jorge gonzalez\",\r\n        \"images/jorge_gonzalez.jpg\",\r\n        \"Estudiante de psicologia-noveno semestre ext Facatativa-25 años\");\r\n        agregarCandidato(\"Luis bedolla\",\r\n        \"images/luis_bedolla.jpg\",\r\n        \"Estudiante de Administracion De Empresas-decimo semestre ext Facatativa-24 años\");\r\n    }\r\n    function agregarCandidato (string memory _nombre,string memory _url,string memory _info) private {\r\n        numero_candidatos++;\r\n        candidatos[numero_candidatos] = candidato(numero_candidatos, _nombre, 0,_url,_info);\r\n    }\r\n\r\n    event votoEvent (\r\n        uint indexed _idCandidato\r\n    );\r\n    function votar (uint _idCandidato) public {\r\n        //verifica 1 voto por cuenta\r\n        require(!votantes[msg.sender],\"Esa direccion de cuenta ya realizo el voto\");\r\n\r\n        //verifica candidato sea valido\r\n        require(_idCandidato > 0 && _idCandidato <= numero_candidatos,\"candidato no valido\");\r\n\r\n        // record that voter has voted\r\n        votantes[msg.sender] = true;\r\n\r\n        // update candidate vote Count\r\n        candidatos[_idCandidato].cantidad_votos ++;\r\n\r\n        // trigger voted event\r\n        emit votoEvent(_idCandidato);\r\n    }\r\n    function solicitudKey (string memory _correo) public {\r\n        for(uint i=1;i<=numero_correos;i++){\r\n            if(keccak256(bytes(correos[i])) == keccak256(bytes(_correo))){\r\n                revert(\"Este correo ya existe\");\r\n            }        \r\n        }\r\n        numero_correos++;\r\n        correos[numero_correos]=_correo;\r\n    }\r\n\r\n}",
  "sourcePath": "C:\\Users\\Steven\\Documents\\dapp\\blockchain\\contracts\\Votacion.sol",
  "compiler": {
    "name": "solc",
    "version": "0.5.16+commit.9c3226ce.Emscripten.clang"
  },
  "schemaVersion": "3.2.0",
  "updatedAt": "2020-08-12T21:10:49.548Z",
  "devdoc": {
    "methods": {}
  },
  "userdoc": {
    "methods": {}
  }
}